{
  "contractName": "UserFunctions",
  "abi": [
    {
      "anonymous": false,
      "inputs": [
        {
          "indexed": false,
          "name": "user",
          "type": "address"
        }
      ],
      "name": "userAdded",
      "type": "event",
      "signature": "0x6bda722b0c3246f6ab28656c881bcc965fcfa5819f23788ac625429a6fcae7a4"
    },
    {
      "anonymous": false,
      "inputs": [
        {
          "indexed": false,
          "name": "cid",
          "type": "string"
        },
        {
          "indexed": false,
          "name": "user",
          "type": "address"
        },
        {
          "indexed": false,
          "name": "fileType",
          "type": "string"
        },
        {
          "indexed": false,
          "name": "name",
          "type": "string"
        },
        {
          "indexed": false,
          "name": "createdAt",
          "type": "uint256"
        },
        {
          "indexed": false,
          "name": "updatedAt",
          "type": "uint256"
        }
      ],
      "name": "fileUploaded",
      "type": "event",
      "signature": "0x8df9420cffd6cb5150ba152fe465c4eed729479f0faa1d389fd181b74e6e73a6"
    },
    {
      "constant": false,
      "inputs": [],
      "name": "AddUser",
      "outputs": [],
      "payable": false,
      "stateMutability": "nonpayable",
      "type": "function",
      "signature": "0xf7e691dd"
    }
  ],
  "bytecode": "0x6080604052348015600f57600080fd5b506101548061001f6000396000f3fe608060405260043610610041576000357c0100000000000000000000000000000000000000000000000000000000900463ffffffff168063f7e691dd14610046575b600080fd5b34801561005257600080fd5b5061005b61005d565b005b60003390806001815401808255809150509060018203906000526020600020016000909192909190916101000a81548173ffffffffffffffffffffffffffffffffffffffff021916908373ffffffffffffffffffffffffffffffffffffffff160217905550507f6bda722b0c3246f6ab28656c881bcc965fcfa5819f23788ac625429a6fcae7a433604051808273ffffffffffffffffffffffffffffffffffffffff1673ffffffffffffffffffffffffffffffffffffffff16815260200191505060405180910390a156fea165627a7a72305820ba1df6bb1dc3e6e7e3db33760d941fd658ca834975e35a0e9dc3eb85b2ed86930029",
  "source": "pragma solidity >=0.4.22 <0.9.0;\r\nimport \"./User.sol\";\r\n\r\ncontract UserFunctions is User {\r\n    event userAdded(address user);\r\n\r\n    function AddUser() public {\r\n        userArr.push(msg.sender);\r\n        emit userAdded(msg.sender);\r\n    }\r\n}\r\n",
  "sourcePath": "G:/ETHIndia22/smart-contract/contracts/UserFunctions.sol",
  "compiler": {
    "name": "solc",
    "version": "0.5.0+commit.1d4f565a.Emscripten.clang"
  },
  "schemaVersion": "3.0.2",
  "updatedAt": "2022-12-03T21:57:17.026Z",
  "devdoc": {
    "methods": {}
  },
  "userdoc": {
    "methods": {}
  }
}