{
  "contractName": "UserFunctions",
  "abi": [
    {
      "anonymous": false,
      "inputs": [
        {
          "indexed": false,
          "name": "user",
          "type": "address"
        }
      ],
      "name": "userAdded",
      "type": "event",
      "signature": "0x6bda722b0c3246f6ab28656c881bcc965fcfa5819f23788ac625429a6fcae7a4"
    },
    {
      "anonymous": false,
      "inputs": [
        {
          "indexed": false,
          "name": "cid",
          "type": "string"
        },
        {
          "indexed": false,
          "name": "user",
          "type": "address"
        },
        {
          "indexed": false,
          "name": "fileType",
          "type": "string"
        },
        {
          "indexed": false,
          "name": "name",
          "type": "string"
        },
        {
          "indexed": false,
          "name": "createdAt",
          "type": "uint256"
        },
        {
          "indexed": false,
          "name": "updatedAt",
          "type": "uint256"
        }
      ],
      "name": "fileUploaded",
      "type": "event",
      "signature": "0x8df9420cffd6cb5150ba152fe465c4eed729479f0faa1d389fd181b74e6e73a6"
    },
    {
      "constant": true,
      "inputs": [
        {
          "name": "user",
          "type": "address"
        }
      ],
      "name": "CheckUserExists",
      "outputs": [
        {
          "name": "",
          "type": "bool"
        }
      ],
      "payable": false,
      "stateMutability": "view",
      "type": "function",
      "signature": "0x3ebed4e5"
    },
    {
      "constant": false,
      "inputs": [],
      "name": "AddUser",
      "outputs": [],
      "payable": false,
      "stateMutability": "nonpayable",
      "type": "function",
      "signature": "0xf7e691dd"
    }
  ],
  "bytecode": "0x608060405234801561001057600080fd5b5061026c806100206000396000f3fe60806040526004361061004c576000357c0100000000000000000000000000000000000000000000000000000000900463ffffffff1680633ebed4e514610051578063f7e691dd146100ba575b600080fd5b34801561005d57600080fd5b506100a06004803603602081101561007457600080fd5b81019080803573ffffffffffffffffffffffffffffffffffffffff1690602001909291905050506100d1565b604051808215151515815260200191505060405180910390f35b3480156100c657600080fd5b506100cf610175565b005b600080600090505b60008054905081101561016a578273ffffffffffffffffffffffffffffffffffffffff1660008281548110151561010c57fe5b9060005260206000200160009054906101000a900473ffffffffffffffffffffffffffffffffffffffff1673ffffffffffffffffffffffffffffffffffffffff16141561015d576001915050610170565b80806001019150506100d9565b50600090505b919050565b60003390806001815401808255809150509060018203906000526020600020016000909192909190916101000a81548173ffffffffffffffffffffffffffffffffffffffff021916908373ffffffffffffffffffffffffffffffffffffffff160217905550507f6bda722b0c3246f6ab28656c881bcc965fcfa5819f23788ac625429a6fcae7a433604051808273ffffffffffffffffffffffffffffffffffffffff1673ffffffffffffffffffffffffffffffffffffffff16815260200191505060405180910390a156fea165627a7a723058208176269d8fe64588295fdb59a87cf685de6a844be0f9e9a97ca2b73daa177aec0029",
  "source": "pragma solidity >=0.4.22 <0.9.0;\r\nimport \"./User.sol\";\r\n\r\ncontract UserFunctions is User {\r\n    event userAdded(address user);\r\n    function CheckUserExists(address user) public view returns(bool) {\r\n        for(uint i = 0; i < userArr.length; i++) {\r\n            if(userArr[i] == user) return true;\r\n        }\r\n        return false;\r\n    }\r\n    function AddUser() public {\r\n        userArr.push(msg.sender);\r\n        emit userAdded(msg.sender);\r\n    }\r\n}\r\n",
  "sourcePath": "G:/ETHIndia22/smart-contract/contracts/UserFunctions.sol",
  "compiler": {
    "name": "solc",
    "version": "0.5.0+commit.1d4f565a.Emscripten.clang"
  },
  "schemaVersion": "3.0.2",
  "updatedAt": "2022-12-03T22:40:15.988Z",
  "devdoc": {
    "methods": {}
  },
  "userdoc": {
    "methods": {}
  }
}