{
  "contractName": "FileFunctions",
  "abi": [
    {
      "anonymous": false,
      "inputs": [
        {
          "indexed": false,
          "name": "cid",
          "type": "string"
        },
        {
          "indexed": false,
          "name": "user",
          "type": "address"
        },
        {
          "indexed": false,
          "name": "fileType",
          "type": "string"
        },
        {
          "indexed": false,
          "name": "name",
          "type": "string"
        },
        {
          "indexed": false,
          "name": "createdAt",
          "type": "uint256"
        },
        {
          "indexed": false,
          "name": "updatedAt",
          "type": "uint256"
        }
      ],
      "name": "fileUploaded",
      "type": "event",
      "signature": "0x8df9420cffd6cb5150ba152fe465c4eed729479f0faa1d389fd181b74e6e73a6"
    },
    {
      "constant": false,
      "inputs": [
        {
          "name": "_fileType",
          "type": "string"
        },
        {
          "name": "_cid",
          "type": "string"
        },
        {
          "name": "name",
          "type": "string"
        }
      ],
      "name": "addFile",
      "outputs": [],
      "payable": false,
      "stateMutability": "nonpayable",
      "type": "function",
      "signature": "0xd45a5685"
    },
    {
      "constant": true,
      "inputs": [],
      "name": "getFiles",
      "outputs": [
        {
          "components": [
            {
              "name": "fileType",
              "type": "string"
            },
            {
              "name": "name",
              "type": "string"
            },
            {
              "name": "cid",
              "type": "string"
            },
            {
              "name": "isUploaded",
              "type": "bool"
            },
            {
              "name": "createdAt",
              "type": "uint256"
            },
            {
              "name": "updatedAt",
              "type": "uint256"
            }
          ],
          "name": "",
          "type": "tuple[]"
        }
      ],
      "payable": false,
      "stateMutability": "view",
      "type": "function",
      "signature": "0x2da96d73"
    },
    {
      "constant": false,
      "inputs": [
        {
          "name": "_cid",
          "type": "string"
        },
        {
          "name": "_success",
          "type": "bool"
        }
      ],
      "name": "updateIsUploaded",
      "outputs": [],
      "payable": false,
      "stateMutability": "nonpayable",
      "type": "function",
      "signature": "0x061a84d6"
    }
  ],
  "bytecode": "0x608060405234801561001057600080fd5b506110ff806100206000396000f3fe608060405260043610610057576000357c0100000000000000000000000000000000000000000000000000000000900463ffffffff168063061a84d61461005c5780632da96d7314610085578063d45a5685146100b0575b600080fd5b34801561006857600080fd5b50610083600480360361007e9190810190610aff565b6100d9565b005b34801561009157600080fd5b5061009a6101f0565b6040516100a79190610e7c565b60405180910390f35b3480156100bc57600080fd5b506100d760048036036100d29190810190610b53565b6104a5565b005b600160003373ffffffffffffffffffffffffffffffffffffffff1673ffffffffffffffffffffffffffffffffffffffff1681526020019081526020016000206000018054905061012933846107e2565b10151561016b576040517f08c379a000000000000000000000000000000000000000000000000000000000815260040161016290610f14565b60405180910390fd5b80600160003373ffffffffffffffffffffffffffffffffffffffff1673ffffffffffffffffffffffffffffffffffffffff1681526020019081526020016000206000016101b833856107e2565b8154811015156101c457fe5b906000526020600020906006020160030160006101000a81548160ff0219169083151502179055505050565b6060600160003373ffffffffffffffffffffffffffffffffffffffff1673ffffffffffffffffffffffffffffffffffffffff168152602001908152602001600020600001805480602002602001604051908101604052809291908181526020016000905b8282101561049c578382906000526020600020906006020160c06040519081016040529081600082018054600181600116156101000203166002900480601f0160208091040260200160405190810160405280929190818152602001828054600181600116156101000203166002900480156103115780601f106102e657610100808354040283529160200191610311565b820191906000526020600020905b8154815290600101906020018083116102f457829003601f168201915b50505050508152602001600182018054600181600116156101000203166002900480601f0160208091040260200160405190810160405280929190818152602001828054600181600116156101000203166002900480156103b35780601f10610388576101008083540402835291602001916103b3565b820191906000526020600020905b81548152906001019060200180831161039657829003601f168201915b50505050508152602001600282018054600181600116156101000203166002900480601f0160208091040260200160405190810160405280929190818152602001828054600181600116156101000203166002900480156104555780601f1061042a57610100808354040283529160200191610455565b820191906000526020600020905b81548152906001019060200180831161043857829003601f168201915b505050505081526020016003820160009054906101000a900460ff161515151581526020016004820154815260200160058201548152505081526020019060010190610254565b50505050905090565b600160003373ffffffffffffffffffffffffffffffffffffffff1673ffffffffffffffffffffffffffffffffffffffff168152602001908152602001600020600001805490506104f533846107e2565b141515610537576040517f08c379a000000000000000000000000000000000000000000000000000000000815260040161052e90610f34565b60405180910390fd5b600160003373ffffffffffffffffffffffffffffffffffffffff1673ffffffffffffffffffffffffffffffffffffffff16815260200190815260200160002060000160c060405190810160405280858152602001838152602001848152602001600015158152602001428152602001428152509080600181540180825580915050906001820390600052602060002090600602016000909192909190915060008201518160000190805190602001906105f19291906109f0565b50602082015181600101908051906020019061060e9291906109f0565b50604082015181600201908051906020019061062b9291906109f0565b5060608201518160030160006101000a81548160ff0219169083151502179055506080820151816004015560a082015181600501555050507f8df9420cffd6cb5150ba152fe465c4eed729479f0faa1d389fd181b74e6e73a68233600160003373ffffffffffffffffffffffffffffffffffffffff1673ffffffffffffffffffffffffffffffffffffffff1681526020019081526020016000206000016106d233876107e2565b8154811015156106de57fe5b9060005260206000209060060201600001600160003373ffffffffffffffffffffffffffffffffffffffff1673ffffffffffffffffffffffffffffffffffffffff16815260200190815260200160002060000161073b33886107e2565b81548110151561074757fe5b9060005260206000209060060201600101600160003373ffffffffffffffffffffffffffffffffffffffff1673ffffffffffffffffffffffffffffffffffffffff1681526020019081526020016000206000016107a433896107e2565b8154811015156107b057fe5b906000526020600020906006020160040154426040516107d596959493929190610e9e565b60405180910390a1505050565b600080600090505b600160008573ffffffffffffffffffffffffffffffffffffffff1673ffffffffffffffffffffffffffffffffffffffff168152602001908152602001600020600001805490508110156109a057826040516020018082805190602001908083835b602083101515610870578051825260208201915060208101905060208303925061084b565b6001836020036101000a03801982511681845116808217855250505050505090500191505060405160208183030381529060405280519060200120600160008673ffffffffffffffffffffffffffffffffffffffff1673ffffffffffffffffffffffffffffffffffffffff168152602001908152602001600020600001828154811015156108fa57fe5b906000526020600020906006020160020160405160200180828054600181600116156101000203166002900480156109695780601f10610947576101008083540402835291820191610969565b820191906000526020600020905b815481529060010190602001808311610955575b505091505060405160208183030381529060405280519060200120141561099357809150506109ea565b80806001019150506107ea565b50600160008473ffffffffffffffffffffffffffffffffffffffff1673ffffffffffffffffffffffffffffffffffffffff1681526020019081526020016000206000018054905090505b92915050565b828054600181600116156101000203166002900490600052602060002090601f016020900481019282601f10610a3157805160ff1916838001178555610a5f565b82800160010185558215610a5f579182015b82811115610a5e578251825591602001919060010190610a43565b5b509050610a6c9190610a70565b5090565b610a9291905b80821115610a8e576000816000905550600101610a76565b5090565b90565b6000610aa18235611030565b905092915050565b600082601f8301121515610abc57600080fd5b8135610acf610aca82610f81565b610f54565b91508082526020830160208301858383011115610aeb57600080fd5b610af6838284611072565b50505092915050565b60008060408385031215610b1257600080fd5b600083013567ffffffffffffffff811115610b2c57600080fd5b610b3885828601610aa9565b9250506020610b4985828601610a95565b9150509250929050565b600080600060608486031215610b6857600080fd5b600084013567ffffffffffffffff811115610b8257600080fd5b610b8e86828701610aa9565b935050602084013567ffffffffffffffff811115610bab57600080fd5b610bb786828701610aa9565b925050604084013567ffffffffffffffff811115610bd457600080fd5b610be086828701610aa9565b9150509250925092565b610bf38161103c565b82525050565b6000610c0482610fcc565b80845260208401935083602082028501610c1d85610fad565b60005b84811015610c56578383038852610c38838351610dd6565b9250610c4382610fed565b9150602088019750600181019050610c20565b508196508694505050505092915050565b610c7081610ffa565b82525050565b6000610c8182610fe2565b808452610c95816020860160208601611081565b610c9e816110b4565b602085010191505092915050565b6000610cb782610fd7565b808452610ccb816020860160208601611081565b610cd4816110b4565b602085010191505092915050565b600081546001811660008114610cff5760018114610d1f57610d60565b607f600283041680865260ff198316602087015260408601935050610d60565b60028204808652602086019550610d3585610fba565b60005b82811015610d5757815481890152600182019150602081019050610d38565b80880195505050505b505092915050565b6000601482527f66696c6520646f6573206e6f74206578697374730000000000000000000000006020830152604082019050919050565b6000601382527f46696c6520616c726561647920657869737473000000000000000000000000006020830152604082019050919050565b600060c0830160008301518482036000860152610df38282610cac565b91505060208301518482036020860152610e0d8282610cac565b91505060408301518482036040860152610e278282610cac565b9150506060830151610e3c6060860182610c67565b506080830151610e4f6080860182610e6d565b5060a0830151610e6260a0860182610e6d565b508091505092915050565b610e7681611026565b82525050565b60006020820190508181036000830152610e968184610bf9565b905092915050565b600060c0820190508181036000830152610eb88189610c76565b9050610ec76020830188610bea565b8181036040830152610ed98187610ce2565b90508181036060830152610eed8186610ce2565b9050610efc6080830185610e6d565b610f0960a0830184610e6d565b979650505050505050565b60006020820190508181036000830152610f2d81610d68565b9050919050565b60006020820190508181036000830152610f4d81610d9f565b9050919050565b6000604051905081810181811067ffffffffffffffff82111715610f7757600080fd5b8060405250919050565b600067ffffffffffffffff821115610f9857600080fd5b601f19601f8301169050602081019050919050565b6000602082019050919050565b60008160005260206000209050919050565b600081519050919050565b600081519050919050565b600081519050919050565b6000602082019050919050565b60008115159050919050565b600073ffffffffffffffffffffffffffffffffffffffff82169050919050565b6000819050919050565b60008115159050919050565b60006110478261104e565b9050919050565b600061105982611060565b9050919050565b600061106b82611006565b9050919050565b82818337600083830152505050565b60005b8381101561109f578082015181840152602081019050611084565b838111156110ae576000848401525b50505050565b6000601f19601f830116905091905056fea265627a7a72305820cbe0319f159c57365c3119a2f33d1d2a797fd6058ad11c58fc0d40b24fedea3e6c6578706572696d656e74616cf50037",
  "source": "pragma solidity >=0.4.22 <0.9.0;\r\npragma experimental ABIEncoderV2;\r\nimport \"./User.sol\";\r\n\r\ncontract FileFunctions is User {\r\n    function findFileIndex(address _user, string memory _cid)\r\n        internal\r\n        view\r\n        returns (uint256)\r\n    {\r\n        for (uint256 i = 0; i < users[_user].files.length; i++) {\r\n            if (\r\n                keccak256(abi.encodePacked(users[_user].files[i].cid)) ==\r\n                keccak256(abi.encodePacked(_cid))\r\n            ) {\r\n                return i;\r\n            }\r\n        }\r\n        return users[_user].files.length;\r\n    }\r\n\r\n    function addFile(\r\n        string memory _fileType,\r\n        string memory _cid,\r\n        string memory name\r\n    ) public {\r\n        require(\r\n            findFileIndex(msg.sender, _cid) == users[msg.sender].files.length,\r\n            \"File already exists\"\r\n        );\r\n        users[msg.sender].files.push(\r\n            file(_fileType, name, _cid, false, block.timestamp, block.timestamp)\r\n        );\r\n        emit fileUploaded(\r\n            _cid,\r\n            msg.sender,\r\n            users[msg.sender].files[findFileIndex(msg.sender, _cid)].fileType,\r\n            users[msg.sender].files[findFileIndex(msg.sender, _cid)].name,\r\n            users[msg.sender].files[findFileIndex(msg.sender, _cid)].createdAt,\r\n            block.timestamp\r\n        );\r\n    }\r\n\r\n    function getFiles() public view returns (file[] memory) {\r\n        return users[msg.sender].files;\r\n    }\r\n\r\n    function updateIsUploaded(string memory _cid, bool _success) public {\r\n        require(\r\n            findFileIndex(msg.sender, _cid) < users[msg.sender].files.length,\r\n            \"file does not exists\"\r\n        );\r\n        users[msg.sender]\r\n            .files[findFileIndex(msg.sender, _cid)]\r\n            .isUploaded = _success;\r\n    }\r\n}\r\n",
  "sourcePath": "G:/ETHIndia22/smart-contract/contracts/FileFunctions.sol",
  "compiler": {
    "name": "solc",
    "version": "0.5.0+commit.1d4f565a.Emscripten.clang"
  },
  "schemaVersion": "3.0.2",
  "updatedAt": "2022-12-05T11:06:26.271Z",
  "devdoc": {
    "methods": {}
  },
  "userdoc": {
    "methods": {}
  }
}