{
  "contractName": "FileFunctions",
  "abi": [
    {
      "anonymous": false,
      "inputs": [
        {
          "indexed": false,
          "name": "cid",
          "type": "string"
        },
        {
          "indexed": false,
          "name": "user",
          "type": "address"
        },
        {
          "indexed": false,
          "name": "fileType",
          "type": "string"
        },
        {
          "indexed": false,
          "name": "name",
          "type": "string"
        },
        {
          "indexed": false,
          "name": "createdAt",
          "type": "uint256"
        },
        {
          "indexed": false,
          "name": "updatedAt",
          "type": "uint256"
        }
      ],
      "name": "fileUploaded",
      "type": "event",
      "signature": "0x8df9420cffd6cb5150ba152fe465c4eed729479f0faa1d389fd181b74e6e73a6"
    },
    {
      "constant": false,
      "inputs": [
        {
          "name": "_fileType",
          "type": "string"
        },
        {
          "name": "_cid",
          "type": "string"
        },
        {
          "name": "name",
          "type": "string"
        }
      ],
      "name": "addFile",
      "outputs": [],
      "payable": false,
      "stateMutability": "nonpayable",
      "type": "function",
      "signature": "0xd45a5685"
    },
    {
      "constant": true,
      "inputs": [],
      "name": "getFiles",
      "outputs": [
        {
          "components": [
            {
              "name": "fileType",
              "type": "string"
            },
            {
              "name": "name",
              "type": "string"
            },
            {
              "name": "cid",
              "type": "string"
            },
            {
              "name": "isUploaded",
              "type": "bool"
            },
            {
              "name": "createdAt",
              "type": "uint256"
            },
            {
              "name": "updatedAt",
              "type": "uint256"
            }
          ],
          "name": "",
          "type": "tuple[]"
        }
      ],
      "payable": false,
      "stateMutability": "view",
      "type": "function",
      "signature": "0x2da96d73"
    },
    {
      "constant": false,
      "inputs": [
        {
          "name": "_cid",
          "type": "string"
        },
        {
          "name": "_success",
          "type": "bool"
        }
      ],
      "name": "updateIsUploaded",
      "outputs": [],
      "payable": false,
      "stateMutability": "nonpayable",
      "type": "function",
      "signature": "0x061a84d6"
    }
  ],
  "bytecode": "0x608060405234801561001057600080fd5b50611106806100206000396000f3fe608060405260043610610057576000357c0100000000000000000000000000000000000000000000000000000000900463ffffffff168063061a84d61461005c5780632da96d7314610085578063d45a5685146100b0575b600080fd5b34801561006857600080fd5b50610083600480360361007e9190810190610b06565b6100d9565b005b34801561009157600080fd5b5061009a610371565b6040516100a79190610e83565b60405180910390f35b3480156100bc57600080fd5b506100d760048036036100d29190810190610b5a565b610626565b005b600160003373ffffffffffffffffffffffffffffffffffffffff1673ffffffffffffffffffffffffffffffffffffffff1681526020019081526020016000206000018054905061012933846107e9565b10151561016b576040517f08c379a000000000000000000000000000000000000000000000000000000000815260040161016290610f1b565b60405180910390fd5b80600160003373ffffffffffffffffffffffffffffffffffffffff1673ffffffffffffffffffffffffffffffffffffffff1681526020019081526020016000206000016101b833856107e9565b8154811015156101c457fe5b906000526020600020906006020160030160006101000a81548160ff021916908315150217905550801561036d577f8df9420cffd6cb5150ba152fe465c4eed729479f0faa1d389fd181b74e6e73a68233600160003373ffffffffffffffffffffffffffffffffffffffff1673ffffffffffffffffffffffffffffffffffffffff16815260200190815260200160002060000161026133876107e9565b81548110151561026d57fe5b9060005260206000209060060201600001600160003373ffffffffffffffffffffffffffffffffffffffff1673ffffffffffffffffffffffffffffffffffffffff1681526020019081526020016000206000016102ca33886107e9565b8154811015156102d657fe5b9060005260206000209060060201600101600160003373ffffffffffffffffffffffffffffffffffffffff1673ffffffffffffffffffffffffffffffffffffffff16815260200190815260200160002060000161033333896107e9565b81548110151561033f57fe5b9060005260206000209060060201600401544260405161036496959493929190610ea5565b60405180910390a15b5050565b6060600160003373ffffffffffffffffffffffffffffffffffffffff1673ffffffffffffffffffffffffffffffffffffffff168152602001908152602001600020600001805480602002602001604051908101604052809291908181526020016000905b8282101561061d578382906000526020600020906006020160c06040519081016040529081600082018054600181600116156101000203166002900480601f0160208091040260200160405190810160405280929190818152602001828054600181600116156101000203166002900480156104925780601f1061046757610100808354040283529160200191610492565b820191906000526020600020905b81548152906001019060200180831161047557829003601f168201915b50505050508152602001600182018054600181600116156101000203166002900480601f0160208091040260200160405190810160405280929190818152602001828054600181600116156101000203166002900480156105345780601f1061050957610100808354040283529160200191610534565b820191906000526020600020905b81548152906001019060200180831161051757829003601f168201915b50505050508152602001600282018054600181600116156101000203166002900480601f0160208091040260200160405190810160405280929190818152602001828054600181600116156101000203166002900480156105d65780601f106105ab576101008083540402835291602001916105d6565b820191906000526020600020905b8154815290600101906020018083116105b957829003601f168201915b505050505081526020016003820160009054906101000a900460ff1615151515815260200160048201548152602001600582015481525050815260200190600101906103d5565b50505050905090565b600160003373ffffffffffffffffffffffffffffffffffffffff1673ffffffffffffffffffffffffffffffffffffffff1681526020019081526020016000206000018054905061067633846107e9565b1415156106b8576040517f08c379a00000000000000000000000000000000000000000000000000000000081526004016106af90610f3b565b60405180910390fd5b600160003373ffffffffffffffffffffffffffffffffffffffff1673ffffffffffffffffffffffffffffffffffffffff16815260200190815260200160002060000160c060405190810160405280858152602001838152602001848152602001600015158152602001428152602001428152509080600181540180825580915050906001820390600052602060002090600602016000909192909190915060008201518160000190805190602001906107729291906109f7565b50602082015181600101908051906020019061078f9291906109f7565b5060408201518160020190805190602001906107ac9291906109f7565b5060608201518160030160006101000a81548160ff0219169083151502179055506080820151816004015560a08201518160050155505050505050565b600080600090505b600160008573ffffffffffffffffffffffffffffffffffffffff1673ffffffffffffffffffffffffffffffffffffffff168152602001908152602001600020600001805490508110156109a757826040516020018082805190602001908083835b6020831015156108775780518252602082019150602081019050602083039250610852565b6001836020036101000a03801982511681845116808217855250505050505090500191505060405160208183030381529060405280519060200120600160008673ffffffffffffffffffffffffffffffffffffffff1673ffffffffffffffffffffffffffffffffffffffff1681526020019081526020016000206000018281548110151561090157fe5b906000526020600020906006020160020160405160200180828054600181600116156101000203166002900480156109705780601f1061094e576101008083540402835291820191610970565b820191906000526020600020905b81548152906001019060200180831161095c575b505091505060405160208183030381529060405280519060200120141561099a57809150506109f1565b80806001019150506107f1565b50600160008473ffffffffffffffffffffffffffffffffffffffff1673ffffffffffffffffffffffffffffffffffffffff1681526020019081526020016000206000018054905090505b92915050565b828054600181600116156101000203166002900490600052602060002090601f016020900481019282601f10610a3857805160ff1916838001178555610a66565b82800160010185558215610a66579182015b82811115610a65578251825591602001919060010190610a4a565b5b509050610a739190610a77565b5090565b610a9991905b80821115610a95576000816000905550600101610a7d565b5090565b90565b6000610aa88235611037565b905092915050565b600082601f8301121515610ac357600080fd5b8135610ad6610ad182610f88565b610f5b565b91508082526020830160208301858383011115610af257600080fd5b610afd838284611079565b50505092915050565b60008060408385031215610b1957600080fd5b600083013567ffffffffffffffff811115610b3357600080fd5b610b3f85828601610ab0565b9250506020610b5085828601610a9c565b9150509250929050565b600080600060608486031215610b6f57600080fd5b600084013567ffffffffffffffff811115610b8957600080fd5b610b9586828701610ab0565b935050602084013567ffffffffffffffff811115610bb257600080fd5b610bbe86828701610ab0565b925050604084013567ffffffffffffffff811115610bdb57600080fd5b610be786828701610ab0565b9150509250925092565b610bfa81611043565b82525050565b6000610c0b82610fd3565b80845260208401935083602082028501610c2485610fb4565b60005b84811015610c5d578383038852610c3f838351610ddd565b9250610c4a82610ff4565b9150602088019750600181019050610c27565b508196508694505050505092915050565b610c7781611001565b82525050565b6000610c8882610fe9565b808452610c9c816020860160208601611088565b610ca5816110bb565b602085010191505092915050565b6000610cbe82610fde565b808452610cd2816020860160208601611088565b610cdb816110bb565b602085010191505092915050565b600081546001811660008114610d065760018114610d2657610d67565b607f600283041680865260ff198316602087015260408601935050610d67565b60028204808652602086019550610d3c85610fc1565b60005b82811015610d5e57815481890152600182019150602081019050610d3f565b80880195505050505b505092915050565b6000601482527f66696c6520646f6573206e6f74206578697374730000000000000000000000006020830152604082019050919050565b6000601382527f46696c6520616c726561647920657869737473000000000000000000000000006020830152604082019050919050565b600060c0830160008301518482036000860152610dfa8282610cb3565b91505060208301518482036020860152610e148282610cb3565b91505060408301518482036040860152610e2e8282610cb3565b9150506060830151610e436060860182610c6e565b506080830151610e566080860182610e74565b5060a0830151610e6960a0860182610e74565b508091505092915050565b610e7d8161102d565b82525050565b60006020820190508181036000830152610e9d8184610c00565b905092915050565b600060c0820190508181036000830152610ebf8189610c7d565b9050610ece6020830188610bf1565b8181036040830152610ee08187610ce9565b90508181036060830152610ef48186610ce9565b9050610f036080830185610e74565b610f1060a0830184610e74565b979650505050505050565b60006020820190508181036000830152610f3481610d6f565b9050919050565b60006020820190508181036000830152610f5481610da6565b9050919050565b6000604051905081810181811067ffffffffffffffff82111715610f7e57600080fd5b8060405250919050565b600067ffffffffffffffff821115610f9f57600080fd5b601f19601f8301169050602081019050919050565b6000602082019050919050565b60008160005260206000209050919050565b600081519050919050565b600081519050919050565b600081519050919050565b6000602082019050919050565b60008115159050919050565b600073ffffffffffffffffffffffffffffffffffffffff82169050919050565b6000819050919050565b60008115159050919050565b600061104e82611055565b9050919050565b600061106082611067565b9050919050565b60006110728261100d565b9050919050565b82818337600083830152505050565b60005b838110156110a657808201518184015260208101905061108b565b838111156110b5576000848401525b50505050565b6000601f19601f830116905091905056fea265627a7a72305820767852032d91b924afcc9ee0550933a8451fdc5322f95e033067440af2bedd076c6578706572696d656e74616cf50037",
  "source": "pragma solidity >=0.4.22 <0.9.0;\r\npragma experimental ABIEncoderV2;\r\nimport \"./User.sol\";\r\n\r\ncontract FileFunctions is User {\r\n    function findFileIndex(address _user, string memory _cid)\r\n        internal\r\n        view\r\n        returns (uint256)\r\n    {\r\n        for (uint256 i = 0; i < users[_user].files.length; i++) {\r\n            if (\r\n                keccak256(abi.encodePacked(users[_user].files[i].cid)) ==\r\n                keccak256(abi.encodePacked(_cid))\r\n            ) {\r\n                return i;\r\n            }\r\n        }\r\n        return users[_user].files.length;\r\n    }\r\n\r\n    function addFile(\r\n        string memory _fileType,\r\n        string memory _cid,\r\n        string memory name\r\n    ) public {\r\n        require(\r\n            findFileIndex(msg.sender, _cid) == users[msg.sender].files.length,\r\n            \"File already exists\"\r\n        );\r\n        users[msg.sender].files.push(\r\n            file(_fileType, name, _cid, false, block.timestamp, block.timestamp)\r\n        );\r\n    }\r\n\r\n    function getFiles() public view returns (file[] memory) {\r\n        return users[msg.sender].files;\r\n    }\r\n\r\n    function updateIsUploaded(string memory _cid, bool _success) public {\r\n        require(\r\n            findFileIndex(msg.sender, _cid) < users[msg.sender].files.length,\r\n            \"file does not exists\"\r\n        );\r\n        users[msg.sender]\r\n            .files[findFileIndex(msg.sender, _cid)]\r\n            .isUploaded = _success;\r\n        if (_success) {\r\n            emit fileUploaded(\r\n                _cid,\r\n                msg.sender,\r\n                users[msg.sender]\r\n                    .files[findFileIndex(msg.sender, _cid)]\r\n                    .fileType,\r\n                users[msg.sender].files[findFileIndex(msg.sender, _cid)].name,\r\n                users[msg.sender]\r\n                    .files[findFileIndex(msg.sender, _cid)]\r\n                    .createdAt,\r\n                block.timestamp\r\n            );\r\n        }\r\n    }\r\n}\r\n",
  "sourcePath": "G:/ETHIndia22/smart-contract/contracts/FileFunctions.sol",
  "compiler": {
    "name": "solc",
    "version": "0.5.0+commit.1d4f565a.Emscripten.clang"
  },
  "schemaVersion": "3.0.2",
  "updatedAt": "2022-12-03T14:02:51.120Z",
  "devdoc": {
    "methods": {}
  },
  "userdoc": {
    "methods": {}
  }
}